:020000020000FC
:0200000017C027
:080004000C9413010C941F0180
:040014000C940C013B
:10002C000C9405010FE50DBF08E00EBF1CD02AD0C3
:10003C002ED036D0C0EA60E07FEF789408D00DD097
:10004C0036D03CD042D096D0ACD066D0F7CF703002
:10005C0011F0919A01C091980895603011F0909A26
:10006C0001C0909808950FEF05BB0FE30ABB00E0A9
:10007C000BBB0FE107BB05E008BB03E801BB03E0CA
:10008C0002BB089500E607B906E806B908950BE629
:10009C0003BF00E00CBF0CE605BD00E003BD0895F6
:1000AC000AE005BF00EC0ABF00EC0BBF089506E6A2
:1000BC0007B9369A3699FECF35B1089507E607B9D8
:1000CC00369A3699FECF25B10895603019F13C1758
:1000DC00C8F02C1730F4032F021B083188F03CD0E9
:1000EC000895022F031B003028F40095083130F0DE
:1000FC0024D005C0083110F020D001C017D00895CD
:10010C001CD008952C1730F0022F031B0831C0F3BC
:10011C001CD0089528D008955CBF43BD0895032FCB
:10012C00122F06951695005C105C0895C09AC19824
:10013C00C29AC49850EC40ED0895C09AC198C29AE6
:10014C00C498EDDF512F402F0895C09AC198C298E2
:10015C00C49A50E640E70895C098C19AC29AC498D0
:10016C0050E640E70895C098C198C298C49850E0F2
:10017C0040E00895032F0695069590E00A3020F094
:10018C000A5093950A30E0F7802F022F06950695BA
:10019C00B0E00A3020F00A50B3950A30E0F7A02FF7
:1001AC000895182F1AD001E00BBB15BB22D0192FC4
:1001BC0014D0100F02E00BBB15BB1BD01A2F0DD0A7
:1001CC0000E8100F04E00BBB15BB13D01B2F05D0A0
:1001DC0008E00BBB15BB0DD00895E4EFF1E0E10F87
:1001EC000027F01F149108953F065B4F666D7D0745
:1001FC007F6F00E014E001501040E8F708950F9372
:10020C000FB70F930F910FBF0F9118950F930FB757
:10021C000F930F910FBF0F9118950F930FB70F936B
:10022C0060956F3F11F050E040E00F910FBF0F91C0
:10023C0018950F930FB70F937095703011F0C0EAAB
:0C024C0001C0C0E20F910FBF0F91189588
:00000001FF
